:020000040800F2
:10000000E80500209D0100085B2400081F2300086C
:100010005924000831090008052D000800000000DF
:10002000000000000000000000000000352800086B
:10003000490A0008000000001125000837280008C0
:10004000B7010008B7010008B7010008B7010008B0
:10005000B7010008B70100084B0A0008510A000860
:10006000570A00085D0A0008B7010008B701000838
:10007000B7010008B7010008B7010008B701000880
:10008000B7010008B70100085D070008B7010008C4
:10009000B7010008B7010008B7010008630A0008AB
:1000A000B7010008B7010008B7010008B701000850
:1000B000B70100080D29000819290008B701000838
:1000C000B7010008B7010008B7010008B701000830
:1000D000B7010008B7010008B7010008B701000820
:1000E000B7010008B7010008B7010008B701000810
:1000F000B7010008B7010008B7010008B701000800
:10010000B7010008B7010008B7010008B7010008EF
:10011000B7010008B7010008B7010008B7010008DF
:10012000B7010008B70100083D0A0008B701000840
:10013000B7010008B7010008B7010008B7010008BF
:10014000B7010008B7010008B7010008B7010008AF
:10015000B7010008B7010008B7010008B70100089F
:10016000B7010008B7010008B7010008B70100088F
:10017000B7010008B7010008B7010008000000003F
:10018000B7010008B7010008DFF80CD000F0C4FA8E
:1001900000480047DD3B0008E8050020064880478E
:1001A00006480047FEE7FEE7FEE7FEE7FEE7FEE75C
:1001B000FEE7FEE7FEE7FEE7C92800088901000820
:1001C000D2B201E000F8012B491EFBD27047002299
:1001D000F6E710B513460A4604461946FFF7F0FF46
:1001E000204610BD2DE9FE4F804681EA0300C00F76
:1001F0000C46009021F0004123F00045B8EB0200CE
:10020000A94105D24046214690461C460B4602466F
:1002100023F00040104347D0270DC7F30A00C3F373
:100220000A510290401A019040286BDAC3F3130080
:1002300040F4801B0098924620B10023D2EB030AC1
:1002400063EB0B0B01985946C0F14002504600F099
:1002500057F906460D4650465946019A00F05FF997
:1002600010EB08006141002487EA115284EAE77329
:100270001A4340D0009A62B3019A012A4FEA07520A
:1002800015DC001B61EB02014FF0004202EA07524D
:10029000CDE90042001C41F5801132462B4600F0AA
:1002A0005FF903B000F045B840462146F9E7001B6E
:1002B00061EB0201001C41F5801300185B4120181E
:1002C000A2F5001747EB030140EAD570B6196D415E
:1002D00011E06D084FEA360645EAC0754FEA07524D
:1002E000001B61EB0201001C41F5801149084FEA37
:1002F00030000019514132462B4603B000F01CB8C3
:1003000000F01FB90098012240000023D0EB020248
:1003100063EBE073009821464FEAE074B8EB00000D
:1003200061EB0401E9E783F000435BE781F0004102
:1003300058E730BCBDE8C08F30BCBDE8C04FFFF708
:10034000DFBF2DE9F04D81EA030404F0004B21F0FA
:10035000004514464FF0000A23F0004150EA050220
:1003600020D054EA01021DD0C5F30A570246C5F356
:100370001303C1F31300C1F30A5640F4801543F48C
:100380008013A7EB0608101BD64608F2FD3873EB66
:10039000050002D308F1010801E092185B41B8F1B1
:1003A000000F03DA00200146BDE8F08D00204FF475
:1003B0008011064684460EE0171B73EB050705D334
:1003C000121B63EB050306434CEA010C49084FEA94
:1003D000300092185B4150EA0107EDD152EA030068
:1003E00012D082EA040083EA0501084305D0101BFD
:1003F000AB4106D20122002306E000224FF0004369
:1004000002E06FF0010253101AEB06004CEB0851AA
:1004100010EB0A0041EB0B01BDE8F04D00F091B884
:100420000EB540F2334102910021CDE900110A4698
:100430000B4600F095F803B000BD000030B5041E77
:1004400071F1000404DB4FF00044404264EB010111
:10045000141E73F1000405DB1C464FF000435242AA
:1004600063EB0403994208BF904230BD30B50B46A0
:10047000014600202022012409E021FA02F59D42D4
:1004800005D303FA02F5491B04FA02F52844151EA8
:10049000A2F10102F1DC30BD2DE9F05F054600203C
:1004A00092469B4688460646814640241BE02846E5
:1004B00041464746224600F041F953465A46C01A83
:1004C000914110D311461846224600F019F82D1A12
:1004D00067EB01084F4622460120002100F010F88A
:1004E00017EB00094E41201EA4F10104DFDC484651
:1004F00031462A46434600F000B830BCBDE8C09FF4
:10050000202A04DB203A00FA02F1002070479140D3
:10051000C2F1200320FA03F3194390407047202AC8
:1005200006DBCB17203A41FA02F043EAE07306E01B
:1005300041FA02F3D040C2F120029140084319462B
:10054000704710B5141E73F1000408DA401C41F125
:10055000000192185B411A4301D120F0010010BD47
:100560002DE9F04D92469B4611B1B1FA81F202E0BD
:10057000B0FA80F220329046FFF7C2FF04460F46E1
:1005800040EA0A0041EA0B0153465A46084313D099
:10059000114653EA010019D0C8F14002504600F05C
:1005A000CDF805460E46504659464246FFF7A8FF8D
:1005B000084305D0012004E020463946BDE8F08D0F
:1005C0000020054346EAE0762C4337430A9863054A
:1005D000E40AA0EB08000022FD0A44EA47540A306E
:1005E00002D500200146E9E7010510196941DDE95E
:1005F000084500196941BDE8F04DA2E72DE9FE4F1D
:1006000081EA030404F0004421F0004100944FF01B
:10061000000B23F0004350EA01045ED052EA0304C9
:100620005BD0C3F30A54C1F30A552C44A4F2F3344B
:100630000194A0FB0254C1F3130141F48011C3F3F0
:10064000130343F4801301FB024400FB034E840AAE
:10065000970A44EA815447EA8357A4FB0768029546
:100660008D0A05FB07854FEA932C04FB0C542705E4
:10067000029D4FEA065847EA1637B5EB08056EEBC0
:10068000070C870E920E47EA811742EA8312A7FBF6
:100690000201B6EB0B0164EB00042B0D43EA0C33B3
:1006A0005E1844EB1C50DA465146E7FB0201C5F3E5
:1006B00013044FEA0B3343EA14534FEA0432019C0C
:1006C00043EA0603A4F10C040294009CCDE900B4B3
:1006D000FFF746FF03B000F003B800200146F9E73A
:1006E00030BCBDE8C08FC1F30A52C1F3130140F220
:1006F000FF3341F480119A4202DA0020014670472C
:1007000040F233439A42A2F2334202DC524200F0FA
:1007100015B8FFF7F5BE0000064C074D06E0E0688F
:1007200040F0010394E8070098471034AC42F6D338
:10073000FFF72EFDC83D0008E83D0008202A04DB35
:10074000203A21FA02F00021704721FA02F3D0404A
:10075000C2F120029140084319467047014800F059
:100760008BB90000300100202DE9F04F002487B044
:100770000646254DDFF894A003274FF00209DFF865
:10078000908012E08CB1032C0FD0012C0DD0022CE4
:100790000BD0042C09D000BF38F81400CDE9029723
:1007A00000905EB1012E11D025E0E86C40F0010010
:1007B000E864E86C00F001000590EDE7002001908E
:1007C0005AF82400694600F039FB14E01148019002
:1007D0005AF82400694600F031FBDFF834B00022FB
:1007E000ABF1060B0F211BF9040000F07DFD1BF996
:1007F000040000F06EFD641CE4B2052CC2D307B007
:10080000002000F009B8000000100240280000207D
:100810007E3D00080000211030BCBDE8C08F000004
:10082000014800F027BC00009801002070B5054683
:10083000002408E0002223461146284602F064FA0C
:10084000641CE4B26D1C287808B1052CF2D9BDE80F
:100850007040014800F0CDBC98010020114810B54F
:100860000F49016000214FF47012C0E901120C22FF
:10087000C2604FF4A05340228361C0E90421C0E963
:10088000071212024162C0E90A12016301F048FD39
:10089000044800F02FFCBDE81040024800F0EABB1D
:1008A000002400409801002030B50400174887B0AC
:1008B00002D0012C08D00FE0C16C41F00201C164EC
:1008C000C06C00F0020006E0C16C41F01001C16490
:1008D000C06C00F0100005900D480E4D694630F8D0
:1008E000140000900120019000200290032003904A
:1008F00055F8240000F0A2FA0098002281B255F8C1
:10090000240000F084FB07B030BD0000001002405E
:10091000743D0008200000200349044A31F81010FB
:1009200052F8200000F06FBB743D0008200000204A
:10093000FEE7000070B5002300781C46342817D06D
:100940000FDCA0F12005142D24D2DFE805F03523BB
:100950002323235623233B3D384E234B2351111190
:100960001111642832D009DCA0F13505042D11D80D
:10097000304B03EB400030F8603C1DE0B02839D02C
:1009800004DC6D2825D06E2804D125E0B52826D0BA
:10099000FF2835D0274DA0F14106343D1A2E03D251
:1009A00005EB400333F8823CA0F161061A2E03D216
:1009B00005EB400030F8C23C012924D025E04AF282
:1009C000DD03F9E72823F7E71123F5E74FF4734335
:1009D000F2E74BF21023EFE742F21023ECE746F286
:1009E0008403E9E74FF42043E6E74AF21403E3E720
:1009F000C023E1E74FF46C43DEE74FF43343DBE71A
:100A00004FF6DD73D8E743F00203012A01D143F02A
:100A1000200309490C2000BF23FA00F202F00F0264
:100A200041F82420001F641CE4B2C0B2042CF3D3AC
:100A300070BD0000603D0008D40100200148006D39
:100A400000F073B9300100207047012000F0EAB9CE
:100A5000022000F0E7B9042000F0E4B9082000F01B
:100A6000E1B9202000F0DEB9704770477047704749
:100A700070477047704700002DE9F0410446006858
:100A800006684568B0070ED5A8070CD5A06DC0064E
:100A900003D4A06D40F40060A0652046FFF7E4FF9A
:100AA0002168022008609C4FDFF87082700701D532
:100AB000680703D430074BD5280749D5A06DC00679
:100AC00003D4A06D40F40070A0652168C86810F4DC
:100AD000406F37D1404681422AD0B94228D0D0F861
:100AE0000823D20624D0D0F8082302F01F02052ADA
:100AF0001ED0D0F8082302F01F02092A18D0C068BF
:100B000080041FD4086800071CD58868400711D4EA
:100B1000486820F00C004860A06D20F48070A0654B
:100B2000A06DC0040ED4A06D40F00100A06509E0E6
:100B3000C868E5E7A06D40F01000A065E06D40F0EA
:100B40000100E0652046FFF794FF21680C20086053
:100B5000B00601D5A80603D470066BD5680669D522
:100B6000A06DC00603D4A06D40F40050A0652068BD
:100B70000168490658D5414688422DD0B8422BD04D
:100B8000D1F80823D20627D0D1F8082302F01F029B
:100B9000062A21D0D1F8082302F01F02072A1BD011
:100BA000D8F80C20884219D0B84217D0D1F80833B1
:100BB000DB0613D0D1F8083303F01F03052B0DD04B
:100BC000D1F8083303F01F03092B07D0C968C36CA1
:100BD00013F0C00F04D027E0C268E3E7C168F6E76E
:100BE000920221D44E4A8A4303D1C16811F4406F66
:100BF0001AD0816809070FD4416821F06001416073
:100C0000A06D20F48050A065A06DC0050CD4A06D2F
:100C100040F00100A06507E0A06D40F01000A06565
:100C2000E06D40F00100E0652046FFF71EFF2168FF
:100C30006020086030060BD5280609D5A06D40F469
:100C40008030A065204600F06FF8216880200860A1
:100C5000F0050CD5E8050AD5A06D40F40030A0657C
:100C60002046FFF704FF21684FF480700860B0054C
:100C70000CD5A8050AD5A06D40F48020A0652046BB
:100C8000FFF7F6FE21684FF400700860F0062CD5DF
:100C9000E8062AD5A06BD0B120684146884202D030
:100CA000204A904210D1D1F80823D2060CD0D1F8B6
:100CB0000803C0F38130022809D0D1F80803C0F33B
:100CC0008130032803D00DE0C068C0070AD0A06DB2
:100CD00040F48060A065E06D40F00200E0652046D1
:100CE000FFF7C8FE216810200860700512D568055E
:100CF00010D5A06D40F48040A065E06D40F0080084
:100D0000E06521684FF4806008602046BDE8F0414E
:100D1000FFF7ACBEBDE8F0810002045000000450B3
:100D200000200002000104507047F0B4016C0D680F
:100D300001680C68466C042202FA06F32B420FD0BD
:100D400063070DD50B689B0603D40B6823F00403DF
:100D50000B6090F844108A40016C4A60016B1BE004
:100D6000022303FA06F72F424FF0000C4FF0010266
:100D700016D0A70714D50C68A40605D40C6824F077
:100D80000A040C6080F8252090F844108B40016C18
:100D90004B6080F824C0C16A002918D0F0BC084715
:100DA0000823B3402B4212D0230710D50B6823F041
:100DB0000E030B6090F84410036C02FA01F15960C5
:100DC000C26380F8252080F824C0416BE4E7F0BCC2
:100DD000704770B5044600F01FF90546601C00D04E
:100DE000641C00F019F9401BA042FAD370BD00004A
:100DF00001210B4A04280ED005DC012809D0022865
:100E000000D111707047082807D02028FAD1D1707E
:100E100070471171704751707047917070470000B2
:100E200003000020044910B50A68024202D008609D
:100E3000FFF7DEFF10BD0000140401402DE9F84F5C
:100E4000DFF898B100234FF0010C4FF0030A4FF088
:100E50000F090BF1040EB9E00CFA03F4224070D034
:100E60004D68022D01D0122D0ED1DD0800EB850852
:100E7000D8F820505E07F70E09FA07F6B5430E6959
:100E8000BE402E43C8F8206007685E0091F80480D9
:100E90000AFA06F508F00308AF4308FA06F848EA2C
:100EA0000708C0F800804F68012F05D0022F03D03B
:100EB000112F01D0122F13D1D0F80880CF6828EA63
:100EC0000508B74047EA08078760D0F804800F7923
:100ED00028EA0408C7F300179F4047EA080747605D
:100EE000D1F804806FEA0807BF0706D1C76AA74395
:100EF000C8F3C0049C403C43C462C468AC438D68E2
:100F0000B5402543C5604C68E4005ED5344C256E81
:100F100045F001052566246E23F0030504F0010465
:100F20000094304C2E19B4689D072F0F09FA07F56D
:100F3000AC43B0F1904F05D02B4DA84204D1012510
:100F40001CE042E0002519E0284DA84201D102250D
:100F500014E0274DA84201D103250FE0254DA842FA
:100F600001D104250AE0244DA84201D1052505E060
:100F7000224DA84201D1062500E00725BD402543AA
:100F8000B560DBF800405D464E689443F60300D53B
:100F900014432C60DEF8004075464E689443B60357
:100FA00000D514432C600D4D08352C684E689443D1
:100FB000F60200D514432C60084D0C352C684E68A1
:100FC0009443B60200D514432C605B1C0A6832FAC5
:100FD00003F57FF441AF00F013B8000000040140B6
:100FE00000100240000001400004004800080048D2
:100FF000000C004800100048001400480018004889
:1010000018BCBDE8E08F42694A40426170470AB1AE
:101010008161704781627047014800687047000035
:101020003C00002002480168491C01607047000034
:101030003C00002010B5032000F076F90F2000F0EE
:1010400005F800F045F9002010BD000010B5044679
:1010500007484FF47A710068B0FBF1F000F006FF2A
:1010600000222146501E00F03FF9002010BD000074
:10107000400000202DE9F041044690F83500012899
:1010800006D094F83500022802D00120BDE8F08196
:1010900094F8340001280CD0012084F83400022791
:1010A00084F83570FFF7B8FF06464FF47A780025CC
:1010B0000CE00220EAE700BFFFF7AEFF801B4045CF
:1010C00004D9A76384F834500320DFE720688068E0
:1010D000C0434007F0D500205FF01401226801EB07
:1010E0008003D550401C0F28F8D9204600F081F825
:1010F0000020CBE72DE9F04104004FF0000504D0BB
:1011000094F83500002618B107E00120BDE8F08111
:1011100084F83460204600F06BF8022084F8350033
:101120002068016821F0010101601420216800EBB2
:1011300085028E506D1C0F2DF8D92068816841F012
:1011400004018160D4E901010843D4E90A12114382
:101150000843E1690843216A0843A1690843616AB9
:10116000084321684A68214B1A40104348602046D2
:1011700001F05AF9D4E903100143226B606910436E
:1011800001432068026822F0FE02114301602068DA
:10119000016841F001010160FFF73EFF05464FF491
:1011A0007A7706E0FFF738FF401BB84201D90820E4
:1011B0000EE020688068C043C007F3D1FFF72CFF22
:1011C000054608E0FFF728FF401BB84203D910206E
:1011D000A06303209AE720688068C043C006F1D46A
:1011E000A663012084F8350000208FE70E0000FC84
:1011F00070472DE9F041044608202168C860206846
:10120000816841F004018160FFF706FF0546002672
:101210004FF47A770BE0FFF7FFFE401BB84206D988
:101220000420A06384F834600320BDE8F0812068C6
:101230008068C0430007EED4012084F8350084F8AC
:1012400034600020F1E700002DE9F047044690F8F3
:1012500035009A4690468946012806D094F8350014
:10126000022802D00120BDE8F08794F8350001285B
:1012700022D194F8340001280BD0012084F83400E6
:10128000022684F83560FFF7C7FE05464FF47A77EB
:101290000DE00220E7E700BFFFF7BEFE401BB842AB
:1012A00005D9A663002084F834000320DBE720681A
:1012B0008068C0434007EFD51422216802EB890003
:1012C0000A5802EA080242EA0A020A500020CAE763
:1012D000704700F01F02012191404009800000F199
:1012E000E020C0F800117047F0B40E4B1B680C46AC
:1012F000C3F30223C3F10705042D00D90425191DEA
:10130000072901D2002300E0DB1E012606FA05F1C1
:10131000491E214099409E40761E16403143F0BC44
:1013200001F09CB80CED00E0064900F007020868E7
:101330004FF6FF03184040EA0220034A10430860BA
:10134000704700000CED00E00000FA051549B0F50B
:10135000007F0868C0F3412009D0022805D0086842
:1013600020F4C06040F480600860002070470128CD
:10137000FBD0086820F4C06040F4007008600A48A0
:101380000A4A0068B0FBF2F03222504300E0401EEF
:1013900010B14A695205FAD448694005E5D50320E1
:1013A00070470000007000404000002040420F00E5
:1013B0000248006800F4C060704700000070004000
:1013C0002DE9F84F044600270088E54D3E4601050B
:1013D00004F1200B1DD5606E78B1B0F5800F11D0EF
:1013E000B0F5000F04D0B0F5400F22D001270FE078
:1013F000E86840F48030E8601BE00021201D01F027
:1014000089F803E00021584601F038F9070010D0B0
:101410003E462088C00426D5A06EC0B1B0F1807FC2
:101420001AD0B0F1007F0DD0B0F1407F19D0012764
:1014300018E0D5F88800616E20F440000843C5F834
:101440008800E6E7E86840F48030E86009E00021C1
:10145000201D01F05FF803E00021584601F00EF96D
:101460000746F7B13E46206880033AD5A86D4FF095
:101470000008C00009D4A86D40F08050A865A86D90
:101480004FF0010800F080500090DFF8D8A2DAF8A1
:10149000001041F48071CAF80010FFF7BDFD8146CD
:1014A00010E0D5F88800A16E20F040700843C5F820
:1014B0008800D8E7FFF7B0FDA0EB0900022801D9AA
:1014C000032705E0DAF80000C005F3D5002F7CD033
:1014D0004FEA0706B8F1000F03D0A86D20F0805046
:1014E000A8652078C00707D0D5F88800A16B20F048
:1014F00003000843C5F888002078800707D5D5F891
:101500008800E16B20F00C000843C5F888002078C3
:10151000400707D5D5F88800216C20F0300008433B
:10152000C5F888002078000707D5D5F88800616CD9
:1015300020F0C0000843C5F888002078C00607D511
:10154000D5F88800A16C20F440700843C5F88800E5
:101550002078800607D5D5F88800E16C20F440603B
:101560000843C5F888002088800507D5D5F888008D
:10157000E16D20F440200843C5F88800208840052C
:1015800007D5D5F88800216E20F440100843C5F82F
:1015900088002078400607D5D5F88800216D20F412
:1015A00040500843C5F888002078000607D5D5F8D4
:1015B0008800616D20F440400843C5F88800208809
:1015C000C00509D5D5F8880000E01CE0A16D20F425
:1015D00040300843C5F8880020884FF00067800439
:1015E0004FF080684FD5D5F88800E16E20F040605C
:1015F0000843C5F88800E06EB8423CD1E86840F482
:101600008010E8603FE0D5F8900010F4407015D0ED
:10161000D4F88410814211D0D5F89000D5F89010FC
:1016200020F4407041F48031C5F89010D5F8901046
:1016300021F48031C5F89010C5F89000C00710D093
:10164000FFF7EAFC074641F2883906E0FFF7E4FCC1
:10165000C11B494501D903263CE7D5F89000800716
:10166000F4D5D5F89000D4F8841020F440700843E5
:10167000C5F890002EE7404505D10121201D00F05E
:1016800049FF00B106462068000317D5D5F8880049
:10169000216F20F040600843C5F88800206FB842F1
:1016A00004D1E86840F48010E86007E0404505D1C7
:1016B0000121201D00F02EFF00B1064620684003E6
:1016C00017D5D5F88800616F20F040600843C5F851
:1016D0008800606FB84204D1E86840F48010E86088
:1016E00007E0404505D10121201D00F013FF00B1A6
:1016F0000646208840041AD5D5F88800A16F20F04E
:1017000040500843C5F88800A06FB0F1805F03D057
:10171000B0F1005F05D00AE00221201D00F0FAFEC2
:1017200003E00221584600F0A9FF00B106462088D8
:10173000000407D5D5F88800E16F20F08040084309
:10174000C5F888002068C00307D555F8880FD4F87D
:10175000801020F0004008432860304600F004B8B4
:10176000001002400070004018BCBDE8E08F00008F
:101770002DE9F047DFF8688105460E46D8F80000ED
:1017800000F00700B0420CD2D8F8001021F0070199
:101790003143C8F80010D8F8000000F00700B0424C
:1017A00074D128784F4C800705D5A068A96820F02F
:1017B000F0000843A0602878C00756D06868022867
:1017C00018D0032819D02168D0B1490500295DDA65
:1017D000A16821F003010143A160FFF71DFC6968C6
:1017E000074641F28830022912D003291ED08146D3
:1017F00049B335E021688903E8E721688901E5E715
:101800008907E3E7FFF708FCC11B494501D924E03C
:101810008146A068C0F381000228F3D125E000BF13
:10182000FFF7FAFBC11B494501D916E08146A068C4
:10183000C0F381000328F3D117E000BFFFF7ECFBF2
:10184000C11B494509D8A06810F00C0FF6D10CE077
:10185000FFF7E2FBC11B494502D90320BDE8F08731
:10186000A068C0F381000128F2D1D8F800104046EA
:1018700001F00701B1420BD9016821F007013143A2
:101880000160006800F00700B04201D00120E5E7E8
:101890002878400705D5A068E96820F4E06008438F
:1018A000A0602878000706D5A068296920F4605058
:1018B00040EAC100A06000F01BF8A168F02292FA93
:1018C000A2F201F0F001B2FA82F2D140064A515C74
:1018D000C840064908600F20FFF7B8FB0020BDE7AD
:1018E0000020024000100240883D00084000002017
:1018F00070B53B49002318468A683A4C12F00C0F29
:101900004FEA640514D08A68C2F38102032A04D125
:10191000CA6802F00302012A0AD08A68C2F381026F
:10192000012A21D08A68C2F38102022A1ED01EE059
:101930000A68120706D4D1F894204FF4706302F4B9
:10194000706203E00A68F02302F0F00293FAA3F356
:10195000B3FA83F3DA40244B53F822308A6812F04A
:101960000C0F04D1184602E0204600E028468A68A1
:10197000C2F38102032A31D1C868CA6800F00300AB
:10198000702696FAA6F602F07002B6FA86F6F240D3
:10199000521C4FF4FE46022804D0032805D0B3FBA6
:1019A000F2F004E0B4FBF2F001E0B5FBF2F0CA683B
:1019B00096FAA6F302F4FE42B3FA83F3DA40C9685A
:1019C00050434FF0C06292FAA2F201F0C061B2FA45
:1019D00082F2D140491C4900B0FBF1F070BD00001B
:1019E000001002400024F400983D00082DE9F8435F
:1019F00004460078FE4DC00663D5A86810F00C0FB1
:101A00000AD0A0690028286878D040F0010028603A
:101A1000FFF702FB06465AE02868800702D5A06956
:101A200000286AD0216A28684FF0F006000703D525
:101A3000286800F0F00003E0D5F8940006EA1010E2
:101A4000814216D9084600F0B7FE002855D1286813
:101A500040F0080028602868216A20F0F000084360
:101A600028606868E16920F47F4040EA01206860EE
:101A700015E0286840F0080028602868216A20F0F6
:101A8000F000084328606868E16920F47F4040EA7C
:101A900001206860206A00F08FFE0028D6D1FFF791
:101AA00027FFA96896FAA6F201F0F001B2FA82F2D5
:101AB000D140D04A515CC840CF4908600F20FFF7A1
:101AC000C5FA2BE0FFF7A8FA801B02287ED8286809
:101AD0008007F7D5286840F0080028602868216A48
:101AE00020F0F000084328606868E16920F47F4036
:101AF00040EA0120686011E000E0B7E020F001005A
:101B00002860FFF789FA064605E000BFFFF784FA70
:101B1000801B0228DAD828688007F7D42078C0070D
:101B200048D0A868C0F3810002281DD0A868C0F37F
:101B30008100032803D1E868C043800714D060689F
:101B4000B0F5803F17D0B0F5A02F286817D020F44B
:101B500080302860286820F4802028606068E0B128
:101B6000FFF75AFA064614E02868800322D5606819
:101B700000287BD01EE0286840F48030EDE740F478
:101B800080202860F7E700BFFFF746FA801B642833
:101B90009CD828688003F7D50CE0FFF73DFA06468D
:101BA00005E000BFFFF738FA801B64288ED828684C
:101BB0008003F7D42078800748D5A8684FF0F857FD
:101BC000C0F38100012816D0A86800E0AFE0C0F3A0
:101BD0008100032804D1E86800F0030002280AD03D
:101BE000E0680028286821D040F480702860FFF762
:101BF00013FA06460BE0286840050BD5E06800287C
:101C0000B7D007E0FFF708FA801B0228C0D8286881
:101C10004005F7D5686897FAA7F22169B2FA82F20F
:101C200020F0F8509140084368600FE020F4807085
:101C30002860FFF7F1F9064605E000BFFFF7ECF971
:101C4000801B022873D828684005F7D42078000745
:101C500029D560690028D5F8940013D040F0010020
:101C6000C5F89400FFF7D8F9064606E0FBE000BF90
:101C7000FFF7D2F9801B022859D8D5F894008007C5
:101C8000F6D510E020F00100C5F89400FFF7C4F984
:101C9000064604E0FFF7C0F9801B022847D8D5F8B4
:101CA00094008007F6D42078400763D5A86D0026FD
:101CB000C00008D4A86D40F08050A865A86D01262A
:101CC00000F0805000904D480168C90511D40168AA
:101CD000804641F480710160FFF79EF9074604E0F9
:101CE000FFF79AF9C01B022821D8D8F80000C005D8
:101CF000F6D5A068012815D00528D5F8900017D092
:101D000020F00100C5F89000D5F8900020F0040004
:101D1000C5F89000A06841F28838C8B1FFF77CF997
:101D2000074610E0D5F8900040F00100F0E75EE0D3
:101D300040F00400C5F89000F4E700BFFFF76CF92D
:101D4000C11B414553D8D5F890008007F6D50CE06B
:101D5000FFF762F9074604E0FFF75EF9C11B414552
:101D600079D8D5F890008007F6D41EB1A86D20F080
:101D70008050A865A06AC8B3A968C1F3810103298E
:101D800072D00228286820F08070286011D028685E
:101D9000000106D42868800003D4E86820F003001E
:101DA000E860E86816490840E860FFF735F904463E
:101DB00054E0FFF731F9064605E000BFFFF72CF9C4
:101DC000801B022847D828688001F7D4206BE16A7D
:101DD000000110380843616BA26B0902120941EA45
:101DE00042410843A18F074A49080DE039E032E03B
:101DF00000100240883D00084000002000700040B4
:101E0000FFFFEEFE0000E0FF02EB4151084394F8B3
:101E100040104908120102EB41610843E86028685C
:101E200040F080702860E86840F08070E860FFF75C
:101E3000F3F8044605E000BFFFF7EEF8001B0228A8
:101E400009D828688001F7D50BE000BFFFF7E4F858
:101E5000001B022802D90320BDE8F883286880010E
:101E6000F4D40020F8E7FFE70120F5E710B5401EA5
:101E7000B0F1807F01D3012010BD4FF0E0246061FC
:101E80000F21601700F0EAFA0020A061072020610E
:101E9000002010BD7047704710B5040003D094F8BF
:101EA000390010B107E0012010BD002084F838008F
:101EB000204600F00DF8022084F83900211D20682A
:101EC00000F030FD012084F83900002010BD000032
:101ED000094808B5816D41F002018165806D0022DD
:101EE00000F00200009001211D20FFF7FDF9BDE880
:101EF00008401D20FFF7EDB9001002400168CA68D4
:101F000042F00102CA600068016841F0010101600D
:101F100000207047704770B50446006801694FF0B3
:101F20000005C943890715D4C168C943890711D47D
:101F3000E91E016101202076206880698007204623
:101F400002D0FFF7E7FF04E000F098F8204600F029
:101F50006BF9257620680169C943490717D4C16820
:101F6000C943490713D46FF00401016102202076B0
:101F70002068806910F4407F204602D0FFF7CAFF36
:101F800004E000F07BF8204600F04EF9257620684A
:101F90000169C943090716D4C168C943090712D4A6
:101FA0006FF008010161042020762068C069800775
:101FB000204602D0FFF7AEFF04E000F05FF82046B5
:101FC00000F032F9257620680169C943C90617D4A3
:101FD000C168C943C90613D46FF01001016108201C
:101FE00020762068C06910F4407F204602D0FFF7B9
:101FF00091FF04E000F042F8204600F015F9257644
:1020000020680169C943C90708D1C168C943C90724
:1020100004D1891E0161204600F074F9206801692D
:10202000C943090609D4C168C943090605D46FF03C
:10203000800101612046FFF72DFF20680169C94337
:10204000490609D4C168C943490605D46FF0400167
:102050000161204600F062F920680169C9438906E0
:102060000BD4C168C943890607D46FF02001016110
:102070002046BDE87040FFF70EBF70BD704770B5D9
:10208000044690F838000D4601280ED0012684F849
:102090003860022084F839000C2A45D007DC5AB198
:1020A000042A1BD0082A78D12CE0022070BD102A07
:1020B0004ED0142A71D15DE0206800F09BFC2068AE
:1020C000816941F0080181612068816921F0040182
:1020D0008161206881692A69114311E0206800F05C
:1020E000D7FC2068816941F40061816120688169C1
:1020F00021F480618161206881692A6941EA0221B5
:1021000081614AE0206800F00BFD2068C16941F060
:102110000801C1612068C16921F00401C161206822
:10212000C1692A69114311E0206800F041FD20686F
:10213000C16941F40061C1612068C16921F4806115
:10214000C1612068C1692A6941EA0221C16124E0B4
:10215000206800F067FD2068416D41F0080141658D
:102160002068416D21F0040141652068416D2A69B4
:10217000114311E0206800F08DFD2068416D41F4AD
:10218000006141652068416D21F4806141652068EE
:10219000416D2A6941EA0221416584F839600020D5
:1021A00084F8380070BD10B5040003D094F83900ED
:1021B00010B107E0012010BD002084F8380020464F
:1021C00000F00CF8022084F83900211D206800F08E
:1021D000A9FB012084F83900002010BD104800B58B
:1021E000016E87B041F400610166016E01F4006187
:1021F0000591C16C41F01001C164C06C032100F075
:1022000010000590022001900120CDE90201049008
:10221000C002009069460348FEF710FE07B000BDFB
:102220000010024000100048006800214162704721
:1022300010B504460068012200F0D0FB0D4821686B
:1022400081420BD00C48814208D00C48814205D015
:102250000B48814202D00B48814203D1486C40F4C4
:10226000004048642068016841F0010101600020DD
:1022700010BD0000002C014000340140004001402E
:10228000004401400048014010B5044600680022A7
:1022900000F0A4FB164841F211122168931081420C
:1022A0000BD01448814208D01348814205D013480E
:1022B000814202D01248814209D1086A104206D1F7
:1022C000086A184203D1486C20F400404864206832
:1022D000016A114206D1016A194203D1016821F055
:1022E00001010160012084F83900002010BD0000C8
:1022F000002C0140003401400040014000440140F6
:102300000048014000680349884202D10249012087
:102310000870704700040040000000207047FEE78E
:1023200030B5B9B0142122A8FDF751FF442127A8E8
:10233000FDF74DFF88216846FDF749FF364CA06D3B
:1023400040F08050A065A06D002500F080503890CE
:102350000420319527900120299027A8FFF746FBFC
:1023600000B1FEE74FF40030009040122190684623
:10237000FFF726F8E06C40F00100E064E06C00F04C
:1023800001003890E06C40F00200E064E06C00F086
:1023900002003890E06C40F00400E064E06C00F073
:1023A00004003890E06C40F00800E064E06C22A982
:1023B00000F00800389048F2C07022900220CDE969
:1023C0002305032025900B2026904FF09040FEF728
:1023D00035FD4FF23320229022A91048FEF72EFD42
:1023E0004FF4FC70229022A90D48FEF727FD4FF410
:1023F0007F40229022A90B48FEF720FD0220FEF725
:10240000E8FCA06D40F40070A065A06D00F40070C1
:10241000389039B030BD0000001002400004004880
:1024200000080048000C004870B50446FEF7F4FDB3
:1024300005464FF47A7608E0FEF7EEFD401BB04209
:1024400003D90120A063032070BD20688068C043C9
:102450008006F1D4002070BDFEE770470907090E21
:10246000002806DA00F00F0000F1E02080F8141DCB
:10247000704700F1E02080F80014704770B520B17B
:10248000642808D34FF426750CE0BDE870400421A1
:102490001B48FFF7F9BE40F2992110FB01F06421BF
:1024A000B0FBF1F517481849184A00680024B0FB42
:1024B000F1F11348491EC0E9002140F29921C0E919
:1024C000031484604461FFF76EFE00B1FEE70C4820
:1024D00060217830042284600461C46084614461B6
:1024E000C0E9001501467838FFF7C9FD00B1FEE7E5
:1024F00004210348FFF79CFE002800D0FEE770BDD2
:102500009C000020400000200024F400002C01402A
:10251000704700002DE9F041544C05460F46E06835
:102520000026820728684FF0700112D0E26802F09E
:10253000030282421BD1D0B1E06891FAA1F100F010
:102540007000B1FA81F1C8406968401C88420ED120
:1025500022E0012804D0022805D0032807D108E092
:102560002268920701E022685205002A07DB012653
:1025700078E02268920302D422685203F5E7E26809
:1025800091FAA1F122F073036A68B1FA81F1521E47
:102590008A4013430343E360206820F0806020609A
:1025A000FEF73AFD804605E0FEF736FDA0EB080099
:1025B00002284ED820680001F6D44FF4FE4017B32D
:1025C00090FAA0F0A968012FB0FA80F04FF0FF3226
:1025D00001FA00F12AD0686902EB50004FF0C062A6
:1025E00092FAA2F2B2FA82F2904001432069204AA4
:1025F000104001432161206840F080602060FEF7B8
:102600000BFD074627E090FAA0F0A968B0FA80F029
:102610008140E8684FF4003292FAA2F20009B2FA5F
:1026200082F2904001432069124AE1E7286902EBF7
:1026300050004FF4C00292FAA2F2B2FA82F2904035
:10264000014320690C4AD3E7FEF7E6FCC01B0228D1
:1026500001D9032606E020680001F5D52069A969A3
:10266000084320613046BDE8F081000000100240C0
:10267000FF80FFF9FF80FDFFFF809FFF2DE9F04104
:102680004A4C06468846E0680025810730684FF0CE
:10269000700312D0E16801F0030181421BD1D0B177
:1026A000E06893FAA3F100F07000B1FA81F1C8403C
:1026B0007168401C88420ED122E0012804D0022813
:1026C00005D0032807D108E02168890701E02168C7
:1026D0004905002907DB012564E02168890302D44C
:1026E00021684903F5E7E16893FAA3F321F0730247
:1026F0007168B3FA83F3491E99400A430243E260CA
:10270000206820F080502060FEF786FC074604E039
:10271000FEF782FCC01B02283BD820688000F7D45B
:102720004FF4FE4191FAA1F1B068B8F1000FB1FA8F
:1027300081F100FA01F019D031694FF0FF3202EB5C
:1027400051014FF0C06292FAA2F2B2FA82F29140C5
:1027500008436169164A114008436061206840F0EF
:1027600080502060FEF758FC074614E0F1684FF4F3
:10277000003292FAA2F20909B2FA82F291400843B9
:1027800061690C4AE7E700BFFEF746FCC01B022860
:1027900001D9032506E020688000F5D560697169DC
:1027A000084360612846BDE8F08100000010024047
:1027B000FF80FFF9FF80FDFFF8B51C4D06460024A1
:1027C000A86DC00002D5FEF7F3FD0DE0A86D40F046
:1027D0008050A865A86D00F080500090FEF7E8FDDD
:1027E000A96D21F08051A965B0F5007F04D0802E3D
:1027F00007D94FF003040AE0802E08D9A02E01D893
:1028000004E001D1022402E0702E00D10124084826
:10281000016821F0070121430160006800F0070012
:10282000A04201D00120F8BD0020F8BD00100240F8
:10283000002002407047FEF7F5BB000010B598B0CD
:10284000142111A8FDF7C3FC44216846FDF7BFFC25
:102850001420009001200290602100240690CDE910
:1028600007410221CDE90A100C9028200D90072085
:102870000E900420CDE90F016846FFF7B7F800B1CC
:10288000FEE70F2011900320CDE9120414940421D7
:1028900011A81594FEF76CFF00B1FEE7094CA06D7E
:1028A00040F08050A065A06D00F08050169020157B
:1028B000FEF74CFD00B1FEE7A06D20F08050A06552
:1028C00018B010BD001002400D48016841F47001BD
:1028D00001600C48016841F0010101600021816044
:1028E0000268094B1A4002608214C260026822F436
:1028F0008022026081610249C0038039086070470C
:1029000088ED00E000100240FFFFF6EA0148FFF703
:1029100002BB0000D80000200148FFF7FCBA00000D
:10292000D80000202DE9F0470268244B244D254EA5
:10293000254F264C4FF0804A984209D0504507D089
:10294000A84205D0B04203D0B84201D0A04204D181
:1029500022F0700C4A6842EA0C02DFF874C0DFF81B
:102960007480DFF8749098420FD050450DD0A84283
:102970000BD0B04209D0B84207D0A04205D0604584
:1029800003D0404501D0484503D122F44075CA68C0
:102990002A4302608A68C2620A688262984207D04B
:1029A000A04205D0604503D0404501D0484501D143
:1029B0000969016301214161BDE8F087002C0140F4
:1029C0000004004000080040000C004000340140BA
:1029D00000400140004401400048014010B501237F
:1029E000046A8B409C430462036A8A401343036277
:1029F00010BD00002DE9F043026A22F001020262DC
:102A0000056A436882691C4C25F0020522400C6867
:102A100022F0030214438A68194E2A43174D194FB6
:102A2000DFF864C0DFF86490A84207D0B04205D058
:102A3000B84203D0604501D0484506D122F00808CD
:102A4000CA6842EA080222F00402A84207D0B04253
:102A500005D0B84203D0604501D0484505D14D6945
:102A600023F440731D438B692B43436084614968A1
:102A700041630262BDE8F0838FFFFEFF002C01403E
:102A80000034014000400140004401400048014042
:102A9000F0B5026A22F010020262056A4268836998
:102AA000194C1B4E23400C6823F4407343EA042462
:102AB00025F020038D6843EA0513144DA84201D088
:102AC000B04206D1CF6823F0800343EA071323F016
:102AD0004003A8420AD0B04208D00E4DA84205D00B
:102AE0000D4DA84202D00D4DA84207D14D6922F4E8
:102AF000406242EA85028D6942EA85024260846151
:102B0000496881630362F0BDFF8FFFFE002C014026
:102B100000340140004001400044014000480140B1
:102B2000F0B5026A22F480720262056A4368C269E3
:102B3000194C1B4E22400C6822F00302144325F46A
:102B400000728D6842EA0522144DA84201D0B042BD
:102B500006D1CF6822F4006242EA072222F48062A2
:102B6000A8420AD0B04208D00E4DA84205D00E4D62
:102B7000A84202D00D4DA84207D14D6923F440531D
:102B800043EA05138D6943EA05134360C46149684C
:102B9000C1630262F0BD00008FFFFEFF002C014008
:102BA0000034014000400140004401400048014021
:102BB00030B5026A22F480520262046A4268C36934
:102BC000124D24F400542B400D6823F4407343EA63
:102BD00005238D6844EA05340D4DA8420BD00D4DF8
:102BE000A84208D00C4DA84205D00C4DA84202D0F6
:102BF0000B4DA84204D14D6922F4804242EA85126D
:102C00004260C36149680164046230BDFF8FFFFE0A
:102C1000002C0140003401400040014000440140CC
:102C20000048014030B5026A22F480320262046A30
:102C30004268436D114D2B400D681D4324F4003351
:102C40000C8943EA04430E4CA0420BD00D4CA04229
:102C500008D00D4CA04205D00C4CA04202D00C4C28
:102C6000A04204D14C6922F4803242EA042242603C
:102C7000456549688165036230BD00008FFFFEFF36
:102C8000002C01400034014000400140004401405C
:102C90000048014030B5026A22F480120262046AE0
:102CA0004268436D114D24F400142B400D6843EA33
:102CB00005230D8944EA05540D4DA8420BD00D4D56
:102CC000A84208D00C4DA84205D00C4DA84202D015
:102CD0000B4DA84204D14D6922F4802242EA85229C
:102CE000426043654968C165046230BDFF8FFFFEE5
:102CF000002C0140003401400040014000440140EC
:102D000000480140FEE700002DE9F0411D46FDF7B7
:102D100011FEFE4C062D7DD2DFE805F0034FA3F631
:102D2000F4F32078FA4DC107C90E00F0020241EA1F
:102D3000825100F0040241EA025300F0080003430C
:102D4000F2482A4600213C38FEF77EFA2079C10776
:102D5000C90E00F0020241EA825100F0040241EA89
:102D6000025300F008000343E8482A4602213C3899
:102D7000FEF76AFA207AC107C90E00F0020241EAA2
:102D8000825100F0040241EA025300F008000343BC
:102D9000DE482A4604213C38FEF756FA207BC1075C
:102DA000C90E00F0020241EA825100F0040241EA39
:102DB000025300F00800034350E02078D54DC107CE
:102DC000490E00F0020241EA023100F0040241EA39
:102DD000822100F0080041EA8003CC482A46002105
:102DE0003C38FEF731FA2079C107490E00F00202A3
:102DF00041EA023100F0040241EA822100F00800B9
:102E000041EA8003C1482A4602213C38FEF71CFAF9
:102E1000207A00E0A3E1C107490E00F0020241EA76
:102E2000023100F0040241EA822100F0080041EA88
:102E30008003B6482A4604213C38FEF705FA207B79
:102E4000C107490E00F0020241EA023100F004021B
:102E500041EA822100F0080041EA80032A46062167
:102E60001DE12078AC4DC107090C00F0020241EAD7
:102E7000027100F0040241EA826100F0080041EAB8
:102E8000C023A2482A4600213C38FEF7DDF920790C
:102E9000C107090C00F0020241EA027100F00402CD
:102EA00041EA826100F0080041EAC02397482A46BF
:102EB00002213C38FEF7C8F9207AC107090C00F05E
:102EC000020241EA027100F0040241EA826100F06C
:102ED000080041EAC0238D482A4604213C38FEF709
:102EE000B3F9207BC107090C00F0020241EA02712C
:102EF00000F0040241EA826100F0080041EAC023C8
:102F0000ACE7D2E05FE0FFE720786FF04045C10713
:102F100000F0080041EAC0637C482A4600213C38A2
:102F2000FEF792F92078AE0000F00203C0F38000B3
:102F300003437648324601213C38FEF785F9207973
:102F40002A46C10700F0080041EAC0636F48022129
:102F50003C38FEF779F92079324600F00203C0F3DD
:102F600080000343694803213C38FEF76DF9207A5D
:102F70002A46C10700F0080041EAC0636348042103
:102F80003C38FEF761F9207A324600F00203C0F3C4
:102F9000800003435D4805213C38FEF755F9207B4E
:102FA0002A46C10700F0080041EAC06357480621DD
:102FB0003C38FEF749F9207B324600F00203C0F3AB
:102FC000800003436AE020786FF0407600F0020151
:102FD000090600F0040041EA80534C4832460021C3
:102FE0003C38FEF731F92068042505EA500100F06D
:102FF000010041EAC0034548B7153A4601213C3873
:10300000FEF722F92079324600F00201090600F0AD
:10301000040041EA80533D4802213C38FEF714F990
:1030200060683A4605EA500100F0010041EAC00339
:10303000364803213C38FEF707F9207A324600F083
:103040000201090600F0040041EA80532F480421E0
:103050003C38FEF7F9F8A0683A4605EA500100F05E
:10306000010041EAC003294805213C38FEF7ECF88D
:10307000207B324600F00201090600F0040041EA1C
:103080008053224806213C38FEF7DEF8E0683A46D5
:1030900005EA500100F0010041EAC0030721BDE844
:1030A000F0411A483C38FEF7CFB820781B4DC107D5
:1030B000890B00F0020241EAC21100F0040241EA69
:1030C000C21100F0080041EAC05310482A4600210E
:1030D0003C38FEF7B9F82079C107890B00F00202ED
:1030E00041EAC21100F0040241EAC21100F00800F6
:1030F00041EAC05305482A4602213C38FEF7A4F8AD
:10310000207AC107890B00F0020209E0D4010020F7
:10311000E7FF3FFF9FCFFFFFFF3FFFCFFFFCFDFB20
:1031200041EAC21100F0040241EAC21100F00800B5
:1031300041EAC0532A4604210A48FEF785F8207B5D
:10314000C107890B00F0020241EAC21100F004023B
:1031500041EAC21100F0080041EAC0537EE6BDE832
:10316000F0810000980100200FB41CB50246002039
:1031700007AC00290BD0491ECDE90021054B6A465A
:103180002146069800F0DEF8009A002111701CBC60
:103190005DF814FB793A000802E008C8121F08C164
:1031A000002AFAD170477047002001E001C1121FC8
:1031B000002AFBD1704700002DE9FF5F82B000219B
:1031C000DDE90430020DDDF840B0034318D044F6C9
:1031D0001050A2F2FF3242431514119801281FD05B
:1031E000A5EB0B00401C5FEA000A4FF000064E4FB3
:1031F000DFF83891B046504615D5CAF1000413E007
:10320000119801244AA3012801D16FEA0B01029809
:10321000119AC0E90031C0E9024206B000F08EB850
:10322000CBF10000DFE704460021404A491842EB99
:103230000450CDE9001012E0E00707D032463B46CB
:1032400040464946FDF7DAF98046894632463B4614
:1032500010461946FDF7D2F906460F466410002CB9
:10326000EAD1DDE90401DDE90023BAF1000F06DA55
:10327000FDF7C4F942464B46FDF7C0F905E0FDF7FE
:1032800060F842464B46FDF75CF804460E460022C5
:10329000284BFDF7D3F803D84FF0FF30014607E085
:1032A0000022254B20463146FCF79CFFFDF71BFA18
:1032B000102409E0002C0ADB0A220023FDF7ECF8B9
:1032C000039B30321A55641E50EA0102F2D1641C8D
:1032D000039AC4F111031444119A012A03D0012264
:1032E00008430DD10AE0084304D000204FF0110B31
:1032F000119072E7A3EB0B056D1E0DE05B4504DD3D
:103300004FF0000205F1010504E003DA4FF000027E
:10331000A5F10105002AECD002981199C0E902310B
:10332000C0E9004579E70000000014400000F03FCC
:10333000300000000000F0430000E03F30BCBDE87A
:10334000C09F00002DE9FF4F95B09B468946064679
:1033500000250FE2252877D100242746F84A0121CD
:10336000059400E0044316F8013F203B01FA03F006
:103370001042F7D130782A2811D06FF02F0330781F
:10338000A0F13002092A16D8059A44F0020402EB93
:10339000820203EB42021044761C0590EFE759F8D5
:1033A000042B0592002A03DA504244F4005405909D
:1033B00044F00204761C30782E2816D116F8010F3E
:1033C00044F004042A280DD06FF02F023078A0F1C9
:1033D0003003092B09D807EB870302EB4303C71817
:1033E000761CF3E759F8047B761C30786C280FD0F4
:1033F00006DC4C2817D068280DD06A2814D104E0C8
:10340000742810D07A280FD10DE044F400140AE09B
:1034100044F4801401E044F440147278824202D1F2
:1034200004F58014761C761C307866280BD013DCEB
:10343000582877D009DC002875D04528F6D04628D2
:10344000F4D047281AD19DE118E0632835D06428CC
:1034500079D0652812D195E1702873D008DC6728EF
:10346000F1D069286FD06E280DD06F2806D1B5E055
:1034700073282CD0752875D0782874D05A4617999F
:1034800090476D1C75E1C4F30250022809D003284F
:103490000DD0D9F8001004280DD00D6009F10409F1
:1034A00067E1D9F80010EA17C1E90052F6E7D9F848
:1034B00000100D80F2E70D70F0E719F8041B8DF88D
:1034C000001000208DF80100EA46012003E059F8C1
:1034D00004AB4FF0FF3061074FF0000102D40DE064
:1034E00008F101018846B9420FDA8045F8DB1AF885
:1034F00008100029F4D108E008F101018846814252
:10350000FADB1AF808100029F6D105985B46A0EB03
:10351000080721463846179A00F097FA284400EB2E
:10352000080507E04DE029E10DE01AF8010B5A46C5
:1035300017999047B8F10108F7D25B462146384603
:10354000179A13E142E00A220092C4F302524FF0AC
:10355000000A022A08D059F804CB032A4FEAEC717A
:103560000AD00DE029E02AE009F1070121F0070265
:10357000F2E802C1914609E00FFA8CFC4FEAEC71C7
:10358000042A03D14FFA8CFC4FEAEC71002907DAC8
:103590000A460021DCF1000C61EB02012D2202E061
:1035A000220504D52B228DF80420012203E0E20736
:1035B00001D02022F7E7904659E00A2102E01022CC
:1035C0000DE010214FF0000A00910BE010224FF0A7
:1035D000000A44F004040827009203E008224FF098
:1035E000000A0092C4F30252022A05D059F804CB13
:1035F0000021032A08D009E009F1070121F00702A0
:10360000F2E802C1914605E01FFA8CFC042A01D1C0
:103610000CF0FF0C4FF00008220728D5702806D0C8
:10362000009B83F0100353EA0A0305D00EE040220A
:103630008DF80420012208E05CEA010206D0302265
:103640008DF804208DF8050002229046009B83F03F
:10365000080353EA0A030AD15CEA010201D16207B6
:1036600005D530228DF804204FF001087F1E582820
:1036700004D034A003900EA802900DE036A0F9E724
:1036800053466046009AFCF707FF84460398825C25
:103690000298401E029002705CEA0100F0D102988C
:1036A00006A9081A00F1200A600702D524F4803424
:1036B00000E00127574502DDA7EB0A0000E00020EB
:1036C00000EB0A01009005984144401A0590E00380
:1036D00006D45B462146179A059800F0B6F90544D2
:1036E000002706E001A85A46C05D179990476D1C57
:1036F0007F1C4745F6DBE0030CD55B462146179A55
:10370000059800F0A2F9054404E030205A461799C4
:1037100090476D1C0099481E00900029F5DC08E0D8
:10372000029802995A460078491C029117999047CD
:103730006D1CBAF10001AAF1010AF1DC65E100009B
:103740000928010030313233343536373839616277
:10375000636465660000000030313233343536373B
:1037600038394142434445460000000000F05BF90F
:103770000544761C307800287FF4ECAD19B028465B
:1037800000F04EB9620700D4062709F1070222F0C3
:10379000070CFCE80223E14603F000485FEA080C4E
:1037A00002D00FF2702C0DE05FEA045C02D50FF23C
:1037B000682C07E05FEAC47C02D00FF2602C01E0C5
:1037C000AFF2700C4FF0FF3823F00043CDF850C03B
:1037D00065280CD006DC452809D046281DD047288E
:1037E0003DD13DE0662818D067287ED138E0002121
:1037F000112F01DB112000E0781CCDE9000106A9A2
:103800000EA8FFF7D9FCDDE90F010E9A0391002104
:10381000009207F1010A04914DE04FF0004000973B
:10382000CDE9011006A90EA8FFF7C6FCDDE90F02DD
:1038300003920E9B11990022DDF80CA000930492D4
:1038400011B9791C00EB010AB7EB0A0004D4C0F1EE
:10385000FF3007F1010A0490AAEB0700019044E051
:10386000012F00DA01270021112F01DD112000E0D6
:103870003846CDE9000106A90EA8FFF79DFCDDE959
:103880000F010E9A0391002104910092BA4621077C
:103890000CD40399514500DA8A46BAF1010F05DDCF
:1038A000009AAAF10101515C302908D0B84202DA2D
:1038B00010F1040F06DA0121CDE9011015E0AAF19B
:1038C0000101E9E7002805DC049901440491AAEB11
:1038D000000102E0411C514500DD8A460499401A6E
:1038E000401C01904FF000400290200704D4019842
:1038F000504501DBCDF8048000208DF84F00029880
:103900000DF14F07B0F1004F25D02B200E900298FB
:103910004FF0020800280CDA404202902D200E9051
:1039200007E00A210298FCF7A1FD3031029007F868
:10393000011DB8F10001A8F10108F2DC029800288D
:10394000EFD1791E0E980870307800F0200040F01A
:10395000450007F8020D12A8C01B00F107081498D3
:10396000007800B1012000EB0A01019801EBE07141
:1039700005984144401A401E0590E00306D45B467A
:103980002146179A059800F060F8054414980078CD
:1039900018B15A46179990476D1CE00324D55B4631
:1039A0002146179A059800F050F805441CE0049849
:1039B000002807DBDDE90301884203DD0098405C55
:1039C000179901E0179930205A469047049805F15D
:1039D0000105401C04900198401E019004D12E2046
:1039E0005A46179990476D1CBAF10001AAF1010AD5
:1039F000DDDC05E017F8010B5A46179990476D1C5E
:103A0000B8F10001A8F10108F4DC5B462146179AE1
:103A10000598ABE62D0000002B0000002000000000
:103A200030BCBDE8C08F2DE9F041044600251E469C
:103A30001746880404D405E039462020B0476D1CA1
:103A4000641EF9D52846BDE8F0812DE9F041044611
:103A500000251E469046C80301D5302700E02027E8
:103A6000880404D505E041463846B0476D1C641E05
:103A7000F9D52846BDE8F0814A68002A06D00A68D0
:103A8000531C0B6010704868401E4860704700006F
:103A900004480021017041708170C1700171417151
:103AA000704700000300002010B5214C2DED028B63
:103AB00094ED040B53EC102B94ED060B51EC100B12
:103AC000FCF731FC9FED1B0B41EC180B53EC102B5A
:103AD000FCF7B4FC04D26078642826D064201EE091
:103AE0009FED160B51EC180B53EC102BFCF7A6FCBA
:103AF00004D26078262818D0262010E09FED110B04
:103B000051EC180B53EC102BFCF798FC607803D2A7
:103B100013280AD0132002E0002806D00020BDECB4
:103B2000028BBDE8104000F0FBB8BDEC028B10BD6D
:103B30000000002000000000000014400000000011
:103B40000000084000000000000000001CB5FCF769
:103B500067FE094809A2072190ED060B09488DED83
:103B6000000BFFF701FB074950208870BDE81C409F
:103B70000846FCF75BBE0000000000202530342E14
:103B8000316643004400002010B543F2903040F607
:103B9000FF71B0FBF1F42046FCF742FC0A4AC2E98F
:103BA0000601A0B2FCF73CFC9FED081B53EC112B67
:103BB000FCF7C7FB9FED071B53EC112BFCF7C1FB78
:103BC00041EC100B10BD0000000000209A9999995B
:103BD0009999094000000000000024402DED028B5F
:103BE000464C82B00025A570FFF752FFFDF722FA80
:103BF0000020FCF759FEFEF721FE0020FDF726FA13
:103C0000FCF72CFE0120FCF7AFFD3D494FF47A7024
:103C10003C4A0968B1FBF0F0401E81B23A480260AC
:103C200040F2E732C0E90325C0E90115FEF734F997
:103C300000B1FEE73448FEF761F900B1FEE7FFF797
:103C4000A3FF84ED060B84ED040BFFF77FFF2B4EE3
:103C50009FED2E8BF61CA07820B1012819D00228E8
:103C6000F9D1FEE7307920B13571FFF711FF01205E
:103C7000A07020780128EED125700020FCF74CFEC2
:103C8000FFF782FF84ED060BFFF70EFFFFF75EFFE5
:103C9000E1E7307918B13571FFF7FAFEA570B07819
:103CA00050B1B57094ED040B53EC182B51EC100B84
:103CB000FCF798FAC4E90401F07850B1F57094ED7E
:103CC000040B53EC182B51EC100BFCF72CFBC4E944
:103CD0000401FCF7A5FD94ED040B0B488DED000BE2
:103CE0000CA207219438FFF73FFA07495020943976
:103CF000C8700846FCF79AFDADE700000000002000
:103D00004000002000040040D80000200000000017
:103D10000000E03F2D2530342E31664300000000C6
:103D200001494870FEF7AABB0000002000FE14679E
:103D3000001D1447009D009C003F00FA1400005332
:103D400041980019485A095A005F00FC015F01FCC4
:103D500000AF1404005BC018815AC9005800C005A8
:103D6000005F004200F5006700EA00AF00BF0046B8
:103D700000FF00EF0400000106070817090001001A
:103D80000200040020000800000000000000000005
:103D90000102030406070809A0860100400D030084
:103DA000801A060000350C0040420F0080841E007F
:103DB00000093D0000127A000024F40000366E0174
:103DC0000048E801006CDC02E83D0008000000202B
:103DD00044000000983100082C3E000844000020F8
:103DE000A4050000A8310008000000000000000049
:103DF00000000000000000000000000000000000C3
:103E0000000000000000000000040048001000480E
:103E10000000004800000048000000480000004882
:0C3E2000000000480000000000093D0008
:040000050800019D51
:00000001FF
