:020000040800F2
:10000000180500209D010008271C0008EB1A0008B5
:10001000251C0008E9040008ED2400080000000089
:100020000000000000000000000000006D1F00083C
:10003000F505000800000000491C00086F1F0008BB
:10004000B7010008B7010008B7010008B7010008B0
:10005000B7010008B7010008F7050008FD05000812
:100060000306000809060008B7010008B7010008E8
:10007000B7010008B7010008B7010008B701000880
:10008000B7010008B7010008B7010008B701000870
:10009000B7010008B7010008B70100080F06000803
:1000A000B7010008B7010008B7010008B701000850
:1000B0007D20000889200008C9200008B701000839
:1000C000B7010008B7010008B7010008B701000830
:1000D000B7010008B7010008B7010008B701000820
:1000E000B7010008B7010008B7010008B701000810
:1000F000B7010008B7010008B7010008B701000800
:10010000B7010008B7010008B7010008B7010008EF
:10011000B7010008B7010008B7010008B7010008DF
:10012000B7010008B7010008B7010008B7010008CF
:10013000B7010008B7010008B7010008B7010008BF
:10014000B7010008B7010008B7010008B7010008AF
:10015000B7010008B7010008B7010008B70100089F
:10016000B7010008B7010008B7010008B70100088F
:10017000B7010008B7010008B7010008000000003F
:10018000B7010008B7010008DFF80CD000F02AF82A
:1001900000480047712900081805002006488047DC
:1001A00006480047FEE7FEE7FEE7FEE7FEE7FEE75C
:1001B000FEE7FEE7FEE7FEE7E91F00088901000809
:1001C000D2B201E000F8012B491EFBD27047002299
:1001D000F6E710B513460A4604461946FFF7F0FF46
:1001E000204610BD064C074D06E0E06840F00103D4
:1001F00094E8070098471034AC42F6D3FFF7C8FFE5
:10020000702A0008902A00082DE9F04F002487B0DA
:100210000646254DDFF894A003274FF00209DFF8CA
:10022000908012E08CB1032C0FD0012C0DD0022C49
:100230000BD0042C09D000BF38F81400CDE9029788
:1002400000905EB1012E11D025E0E86C40F0010075
:10025000E864E86C00F001000590EDE700200190F3
:100260005AF82400694600F049FA14E01148019058
:100270005AF82400694600F041FADFF834B0002251
:10028000ABF1060B0F211BF9040000F08DFC1BF9EC
:10029000040000F07EFC641CE4B2052CC2D307B05D
:1002A000002000F009B800000010024014000020F7
:1002B000DE2900080000211030BCBDE8C08F00001E
:1002C000014800F037BB0000C800002070B50546AB
:1002D000002408E0002223461146284602F008F9CF
:1002E000641CE4B26D1C287808B1052CF2D9BDE875
:1002F0007040014800F0DDBBC8000020114810B577
:100300000F49016000214FF47012C0E901120C2264
:10031000C2604FF4A05340228361C0E90421C0E9C8
:10032000071212024162C0E90A12016301F0DEFB0A
:10033000044800F03FFBBDE81040024800F0FABA64
:1003400000240040C80000202DE9FC5F0025324F4A
:100350000095019593468946AA463D7000284DD0E8
:10036000014602E06D1CEDB2491C0A78002AF9D161
:1003700004466846FFF7AAFF584600F04FF90026EA
:1003800047E0002041E0411CB1FBF5F2884605FB47
:100390001211615C8DF80010811CB1FBF5F205FBB8
:1003A0001211615C8DF80110C11CB1FBF5F205FB67
:1003B0001211615C8DF80210011DB1FBF5F205FB15
:1003C0001211615C8DF80310411DB1FBF5F205FBC4
:1003D0001211801D615C8DF80410B0FBF5F105FB76
:1003E0001100205C8DF805000C4800F0A3FA684667
:1003F000FFF76CFF387818B187F800A000F010B84C
:10040000584600F00BF908F0FF00A842BBD3761C59
:10041000F6B24E45B5D3F1E728000020C800002011
:100420003CBCBDE8C09F000030B50400174887B051
:1004300002D0012C08D00FE0C16C41F00201C16470
:10044000C06C00F0020006E0C16C41F01001C16414
:10045000C06C00F0100005900D480E4D694630F854
:1004600014000090012001900020029003200390CE
:1004700055F8240000F042F90098002281B255F8A6
:10048000240000F024FA07B030BD00000010024044
:10049000D42900080C0000200449054A31F8101046
:1004A00052F82000002200F012BA0000D4290008FF
:1004B0000C0000200449054A31F8101052F82000C1
:1004C000012200F004BA0000D42900080C0000202A
:1004D0000349044A31F8101052F8200000F0F3B933
:1004E000D42900080C000020FEE7000070B50023AE
:1004F00000781C46342817D00FDCA0F12005142DFD
:1005000024D2DFE805F035232323235623233B3D64
:10051000384E234B235111111111642832D009DCBC
:10052000A0F13505042D11D8304B03EB400030F815
:10053000603C1DE0B02839D004DC6D2825D06E2841
:1005400004D125E0B52826D0FF2835D0274DA0F1CD
:100550004106343D1A2E03D205EB400333F8823CAA
:10056000A0F161061A2E03D205EB400030F8C23C20
:10057000012924D025E04AF2DD03F9E72823F7E733
:100580001123F5E74FF47343F2E74BF21023EFE743
:1005900042F21023ECE746F28403E9E74FF42043EC
:1005A000E6E74AF21403E3E7C023E1E74FF46C43C4
:1005B000DEE74FF43343DBE74FF6DD73D8E743F074
:1005C0000203012A01D143F0200309490C2000BF96
:1005D00023FA00F202F00F0241F82420001F641CED
:1005E000E4B2C0B2042CF3D370BD00001C2A000892
:1005F000040100207047012000F074B8022000F0D0
:1006000071B8042000F06EB8082000F06BB820200C
:1006100000F068B80020FFF74DFFFEE770B5044614
:1006200000F05AF90546601C00D0641C00F054F933
:10063000401BA042FAD370BD70B5042828D004DC5A
:1006400001280AD0022804D11EE0082824D020283E
:1006500026D0FFF735FE16A025E0FFF731FE16A0E5
:10066000FFF734FE164C012528466570FFF714FF8E
:1006700020788543257061892078401CB1FBF0F01B
:1006800010490968486370BDFFF71AFE0EA00AE022
:10069000FFF716FE0EA006E0FFF712FE0EA002E026
:1006A000FFF70EFE0DA0BDE87040FFF70FBE000083
:1006B0004F5448455200000073656C656374000038
:1006C00000000020700000206C65667400000000CF
:1006D000726967687400000075700000646F776E5F
:1006E00000000000044910B50A68024202D0086008
:1006F000FFF7A2FF10BD0000140401402DE9F84FE0
:10070000DFF898B100234FF0010C4FF0030A4FF0CF
:100710000F090BF1040EB9E00CFA03F4224070D07B
:100720004D68022D01D0122D0ED1DD0800EB850899
:10073000D8F820505E07F70E09FA07F6B5430E69A0
:10074000BE402E43C8F8206007685E0091F8048020
:100750000AFA06F508F00308AF4308FA06F848EA73
:100760000708C0F800804F68012F05D0022F03D082
:10077000112F01D0122F13D1D0F80880CF6828EAAA
:100780000508B74047EA08078760D0F804800F796A
:1007900028EA0408C7F300179F4047EA08074760A4
:1007A000D1F804806FEA0807BF0706D1C76AA743DC
:1007B000C8F3C0049C403C43C462C468AC438D6829
:1007C000B5402543C5604C68E4005ED5344C256EC9
:1007D00045F001052566246E23F0030504F00104AD
:1007E0000094304C2E19B4689D072F0F09FA07F5B5
:1007F000AC43B0F1904F05D02B4DA84204D1012558
:100800001CE042E0002519E0284DA84201D1022554
:1008100014E0274DA84201D103250FE0254DA84241
:1008200001D104250AE0244DA84201D1052505E0A7
:10083000224DA84201D1062500E00725BD402543F1
:10084000B560DBF800405D464E689443F60300D582
:1008500014432C60DEF8004075464E689443B6039E
:1008600000D514432C600D4D08352C684E68944318
:10087000F60200D514432C60084D0C352C684E68E8
:100880009443B60200D514432C605B1C0A6832FA0C
:1008900003F57FF441AF00F013B8000000040140FD
:1008A0000010024000000140000400480008004819
:1008B000000C0048001000480014004800180048D0
:1008C00018BCBDE8E08F42694A40426170470AB1F6
:1008D000816170478162704701480068704700007D
:1008E0002C00002002480168491C0160704700008C
:1008F0002C00002010B5032000F076F90F2000F046
:1009000005F800F045F9002010BD000010B50446C0
:1009100007484FF47A710068B0FBF1F000F006FF71
:1009200000222146501E00F03FF9002010BD0000BB
:10093000300000202DE9F041044690F835000128F0
:1009400006D094F83500022802D00120BDE8F081DD
:1009500094F8340001280CD0012084F834000227D8
:1009600084F83570FFF7B8FF06464FF47A78002513
:100970000CE00220EAE700BFFFF7AEFF801B404516
:1009800004D9A76384F834500320DFE72068806827
:10099000C0434007F0D500205FF01401226801EB4E
:1009A0008003D550401C0F28F8D9204600F081F86C
:1009B0000020CBE72DE9F04104004FF0000504D002
:1009C00094F83500002618B107E00120BDE8F08159
:1009D00084F83460204600F06BF8022084F835007B
:1009E0002068016821F0010101601420216800EBFA
:1009F00085028E506D1C0F2DF8D92068816841F05A
:100A000004018160D4E901010843D4E90A121143C9
:100A10000843E1690843216A0843A1690843616A00
:100A2000084321684A68214B1A4010434860204619
:100A300001F0E0F8D4E903100143226B6069104330
:100A400001432068026822F0FE0211430160206821
:100A5000016841F001010160FFF73EFF05464FF4D8
:100A60007A7706E0FFF738FF401BB84201D908202B
:100A70000EE020688068C043C007F3D1FFF72CFF69
:100A8000054608E0FFF728FF401BB84203D91020B5
:100A9000A06303209AE720688068C043C006F1D4B1
:100AA000A663012084F8350000208FE70E0000FCCB
:100AB00070472DE9F041044608202168C86020688D
:100AC000816841F004018160FFF706FF05460026BA
:100AD0004FF47A770BE0FFF7FFFE401BB84206D9D0
:100AE0000420A06384F834600320BDE8F08120680E
:100AF0008068C0430007EED4012084F8350084F8F4
:100B000034600020F1E700002DE9F047044690F83A
:100B100035009A4690468946012806D094F835005B
:100B2000022802D00120BDE8F08794F835000128A2
:100B300022D194F8340001280BD0012084F834002D
:100B4000022684F83560FFF7C7FE05464FF47A7732
:100B50000DE00220E7E700BFFFF7BEFE401BB842F2
:100B600005D9A663002084F834000320DBE7206861
:100B70008068C0434007EFD51422216802EB89004A
:100B80000A5802EA080242EA0A020A500020CAE7AA
:100B9000704700F01F02012191404009800000F1E0
:100BA000E020C0F800117047F0B40E4B1B680C46F3
:100BB000C3F30223C3F10705042D00D90425191D31
:100BC000072901D2002300E0DB1E012606FA05F109
:100BD000491E214099409E40761E16403143F0BC8C
:100BE00001F022B80CED00E0064900F007020868A9
:100BF0004FF6FF03184040EA0220034A1043086002
:100C0000704700000CED00E00000FA051549B0F552
:100C1000007F0868C0F3412009D0022805D0086889
:100C200020F4C06040F48060086000207047012814
:100C3000FBD0086820F4C06040F4007008600A48E7
:100C40000A4A0068B0FBF2F03222504300E0401E36
:100C500010B14A695205FAD448694005E5D5032028
:100C600070470000007000403000002040420F003C
:100C70000248006800F4C060704700000070004047
:100C80002DE9F84F044600270088E54D3E46010552
:100C900004F1200B1DD5606E78B1B0F5800F11D036
:100CA000B0F5000F04D0B0F5400F22D001270FE0BF
:100CB000E86840F48030E8601BE00021201D00F06F
:100CC000C5FF03E00021584601F074F8070010D07A
:100CD0003E462088C00426D5A06EC0B1B0F1807F0A
:100CE0001AD0B0F1007F0DD0B0F1407F19D00127AC
:100CF00018E0D5F88800616E20F440000843C5F87C
:100D00008800E6E7E86840F48030E86009E0002108
:100D1000201D00F09BFF03E00021584601F04AF837
:100D20000746F7B13E46206880033AD5A86D4FF0DC
:100D30000008C00009D4A86D40F08050A865A86DD7
:100D40004FF0010800F080500090DFF8D8A2DAF8E8
:100D5000001041F48071CAF80010FFF7BDFD814614
:100D600010E0D5F88800A16E20F040700843C5F867
:100D70008800D8E7FFF7B0FDA0EB0900022801D9F1
:100D8000032705E0DAF80000C005F3D5002F7CD07A
:100D90004FEA0706B8F1000F03D0A86D20F080508D
:100DA000A8652078C00707D0D5F88800A16B20F08F
:100DB00003000843C5F888002078800707D5D5F8D8
:100DC0008800E16B20F00C000843C5F8880020780B
:100DD000400707D5D5F88800216C20F03000084383
:100DE000C5F888002078000707D5D5F88800616C21
:100DF00020F0C0000843C5F888002078C00607D559
:100E0000D5F88800A16C20F440700843C5F888002C
:100E10002078800607D5D5F88800E16C20F4406082
:100E20000843C5F888002088800507D5D5F88800D4
:100E3000E16D20F440200843C5F888002088400573
:100E400007D5D5F88800216E20F440100843C5F876
:100E500088002078400607D5D5F88800216D20F459
:100E600040500843C5F888002078000607D5D5F81B
:100E70008800616D20F440400843C5F88800208850
:100E8000C00509D5D5F8880000E01CE0A16D20F46C
:100E900040300843C5F8880020884FF00067800480
:100EA0004FF080684FD5D5F88800E16E20F04060A3
:100EB0000843C5F88800E06EB8423CD1E86840F4C9
:100EC0008010E8603FE0D5F8900010F4407015D035
:100ED000D4F88410814211D0D5F89000D5F8901044
:100EE00020F4407041F48031C5F89010D5F890108E
:100EF00021F48031C5F89010C5F89000C00710D0DB
:100F0000FFF7EAFC074641F2883906E0FFF7E4FC08
:100F1000C11B494501D903263CE7D5F8900080075D
:100F2000F4D5D5F89000D4F8841020F4407008432C
:100F3000C5F890002EE7404505D10121201D00F0A5
:100F400085FE00B106462068000317D5D5F8880055
:100F5000216F20F040600843C5F88800206FB84238
:100F600004D1E86840F48010E86007E0404505D10E
:100F70000121201D00F06AFE00B1064620684003F2
:100F800017D5D5F88800616F20F040600843C5F898
:100F90008800606FB84204D1E86840F48010E860CF
:100FA00007E0404505D10121201D00F04FFE00B1B2
:100FB0000646208840041AD5D5F88800A16F20F095
:100FC00040500843C5F88800A06FB0F1805F03D09F
:100FD000B0F1005F05D00AE00221201D00F036FECE
:100FE00003E00221584600F0E5FE00B106462088E5
:100FF000000407D5D5F88800E16F20F08040084351
:10100000C5F888002068C00307D555F8880FD4F8C4
:10101000801020F0004008432860304600F004B8FB
:10102000001002400070004018BCBDE8E08F0000D6
:101030002DE9F047DFF8688105460E46D8F8000034
:1010400000F00700B0420CD2D8F8001021F00701E0
:101050003143C8F80010D8F8000000F00700B04293
:1010600074D128784F4C800705D5A068A96820F076
:10107000F0000843A0602878C00756D068680228AE
:1010800018D0032819D02168D0B1490500295DDAAC
:10109000A16821F003010143A160FFF71DFC69680D
:1010A000074641F28830022912D003291ED081461A
:1010B00049B335E021688903E8E721688901E5E75C
:1010C0008907E3E7FFF708FCC11B494501D924E084
:1010D0008146A068C0F381000228F3D125E000BF5B
:1010E000FFF7FAFBC11B494501D916E08146A0680C
:1010F000C0F381000328F3D117E000BFFFF7ECFB3A
:10110000C11B494509D8A06810F00C0FF6D10CE0BE
:10111000FFF7E2FBC11B494502D90320BDE8F08778
:10112000A068C0F381000128F2D1D8F80010404631
:1011300001F00701B1420BD9016821F007013143E9
:101140000160006800F00700B04201D00120E5E72F
:101150002878400705D5A068E96820F4E0600843D6
:10116000A0602878000706D5A068296920F460509F
:1011700040EAC100A06000F01BF8A168F02292FADA
:10118000A2F201F0F001B2FA82F2D140064A515CBB
:10119000C840064908600F20FFF7B8FB0020BDE7F4
:1011A0000020024000100240302A000830000020D9
:1011B00070B53B49002318468A683A4C12F00C0F70
:1011C0004FEA640514D08A68C2F38102032A04D16D
:1011D000CA6802F00302012A0AD08A68C2F38102B7
:1011E000012A21D08A68C2F38102022A1ED01EE0A1
:1011F0000A68120706D4D1F894204FF4706302F401
:10120000706203E00A68F02302F0F00293FAA3F39D
:10121000B3FA83F3DA40244B53F822308A6812F091
:101220000C0F04D1184602E0204600E028468A68E8
:10123000C2F38102032A31D1C868CA6800F00300F2
:10124000702696FAA6F602F07002B6FA86F6F2401A
:10125000521C4FF4FE46022804D0032805D0B3FBED
:10126000F2F004E0B4FBF2F001E0B5FBF2F0CA6882
:1012700096FAA6F302F4FE42B3FA83F3DA40C968A1
:1012800050434FF0C06292FAA2F201F0C061B2FA8C
:1012900082F2D140491C4900B0FBF1F070BD000062
:1012A000001002400024F400402A00082DE9F84311
:1012B00004460078FE4DC00663D5A86810F00C0FF8
:1012C0000AD0A0690028286878D040F00100286082
:1012D000FFF702FB06465AE02868800702D5A0699E
:1012E00000286AD0216A28684FF0F006000703D56D
:1012F000286800F0F00003E0D5F8940006EA10102A
:10130000814216D9084600F0F3FD002855D128681F
:1013100040F0080028602868216A20F0F0000843A7
:1013200028606868E16920F47F4040EA0120686035
:1013300015E0286840F0080028602868216A20F03D
:10134000F000084328606868E16920F47F4040EAC3
:1013500001206860206A00F0CBFD0028D6D1FFF79D
:1013600027FFA96896FAA6F201F0F001B2FA82F21C
:10137000D140D04A515CC840CF4908600F20FFF7E8
:10138000C5FA2BE0FFF7A8FA801B02287ED8286850
:101390008007F7D5286840F0080028602868216A8F
:1013A00020F0F000084328606868E16920F47F407D
:1013B00040EA0120686011E000E0B7E020F00100A1
:1013C0002860FFF789FA064605E000BFFFF784FAB8
:1013D000801B0228DAD828688007F7D42078C00755
:1013E00048D0A868C0F3810002281DD0A868C0F3C7
:1013F0008100032803D1E868C043800714D06068E7
:10140000B0F5803F17D0B0F5A02F286817D020F492
:1014100080302860286820F4802028606068E0B16F
:10142000FFF75AFA064614E02868800322D5606860
:1014300000287BD01EE0286840F48030EDE740F4BF
:1014400080202860F7E700BFFFF746FA801B64287A
:101450009CD828688003F7D50CE0FFF73DFA0646D4
:1014600005E000BFFFF738FA801B64288ED8286893
:101470008003F7D42078800748D5A8684FF0F85744
:10148000C0F38100012816D0A86800E0AFE0C0F3E7
:101490008100032804D1E86800F0030002280AD084
:1014A000E0680028286821D040F480702860FFF7A9
:1014B00013FA06460BE0286840050BD5E0680028C3
:1014C000B7D007E0FFF708FA801B0228C0D82868C9
:1014D0004005F7D5686897FAA7F22169B2FA82F257
:1014E00020F0F8509140084368600FE020F48070CD
:1014F0002860FFF7F1F9064605E000BFFFF7ECF9B9
:10150000801B022873D828684005F7D4207800078C
:1015100029D560690028D5F8940013D040F0010067
:10152000C5F89400FFF7D8F9064606E0FBE000BFD7
:10153000FFF7D2F9801B022859D8D5F8940080070C
:10154000F6D510E020F00100C5F89400FFF7C4F9CB
:10155000064604E0FFF7C0F9801B022847D8D5F8FB
:1015600094008007F6D42078400763D5A86D002644
:10157000C00008D4A86D40F08050A865A86D012671
:1015800000F0805000904D480168C90511D40168F1
:10159000804641F480710160FFF79EF9074604E040
:1015A000FFF79AF9C01B022821D8D8F80000C0051F
:1015B000F6D5A068012815D00528D5F8900017D0D9
:1015C00020F00100C5F89000D5F8900020F004004C
:1015D000C5F89000A06841F28838C8B1FFF77CF9DF
:1015E000074610E0D5F8900040F00100F0E75EE01B
:1015F00040F00400C5F89000F4E700BFFFF76CF975
:10160000C11B414553D8D5F890008007F6D50CE0B2
:10161000FFF762F9074604E0FFF75EF9C11B414599
:1016200079D8D5F890008007F6D41EB1A86D20F0C7
:101630008050A865A06AC8B3A968C1F381010329D5
:1016400072D00228286820F08070286011D02868A5
:10165000000106D42868800003D4E86820F0030065
:10166000E860E86816490840E860FFF735F9044685
:1016700054E0FFF731F9064605E000BFFFF72CF90B
:10168000801B022847D828688001F7D4206BE16AC4
:10169000000110380843616BA26B0902120941EA8C
:1016A00042410843A18F074A49080DE039E032E082
:1016B00000100240302A0008300000200070004076
:1016C000FFFFEEFE0000E0FF02EB4151084394F8FB
:1016D00040104908120102EB41610843E8602868A4
:1016E00040F080702860E86840F08070E860FFF7A4
:1016F000F3F8044605E000BFFFF7EEF8001B0228F0
:1017000009D828688001F7D50BE000BFFFF7E4F89F
:10171000001B022802D90320BDE8F8832868800155
:10172000F4D40020F8E7FFE70120F5E710B5401EEC
:10173000B0F1807F01D3012010BD4FF0E024606143
:101740000F21601700F070FA0020A06107202061CF
:10175000002010BD7047704710B5040003D094F806
:10176000390010B107E0012010BD002084F83800D6
:10177000204600F00DF8022084F83900211D206871
:1017800000F0C4FC012084F83900002010BD0000E6
:10179000094808B5816D41F001018165806D002225
:1017A00000F00100009001211C20FFF7FDF9BDE8C9
:1017B00008401C20FFF7EDB9001002400168CA681C
:1017C00042F00102CA600068016841F00101016055
:1017D00000207047704770B50446006801694FF0FB
:1017E0000005C943890715D4C168C943890711D4C5
:1017F000E91E01610120207620688069800720466B
:1018000002D0FFF7E7FF04E000F0D2F8204600F036
:1018100053F9257620680169C943490717D4C1687F
:10182000C943490713D46FF00401016102202076F7
:101830002068806910F4407F204602D0FFF7CAFF7D
:1018400004E000F0B5F8204600F036F9257620686F
:101850000169C943090716D4C168C943090712D4ED
:101860006FF008010161042020762068C0698007BC
:10187000204602D0FFF7AEFF04E000F099F82046C2
:1018800000F01AF9257620680169C943C90617D402
:10189000C168C943C90613D46FF010010161082063
:1018A00020762068C06910F4407F204602D0FFF700
:1018B00091FF04E000F07CF8204600F0FDF825766A
:1018C00020680169C943C90708D1C168C943C9076C
:1018D00004D1891E0161204600F0F0F820680169FA
:1018E000C943090609D4C168C943090605D46FF084
:1018F000800101612046FFF72DFF20680169C9437F
:10190000490609D4C168C943490605D46FF04001AE
:101910000161204600F0E8F820680169C9438906A2
:101920000BD4C168C943890607D46FF02001016157
:101930002046BDE87040FFF70EBF70BD70B504468D
:1019400090F8380001280ED0012584F83850022084
:1019500084F839000C2A19D007DC5AB1042A0DD0BA
:10196000082A1ED10EE0022070BD102A12D0142ABF
:1019700017D113E0206800F031FC12E0206800F07D
:101980007BFC0EE0206800F0BFFC0AE0206800F05D
:1019900003FD06E0206800F039FD02E0206800F059
:1019A0006DFD84F83950002084F8380070BD0000C7
:1019B00010B504460448407810B90120FEF788FDB0
:1019C00021680020486210BD0000002010B504000E
:1019D00003D094F8390010B107E0012010BD0020B9
:1019E00084F83800204600F00DF8022084F8390011
:1019F000211D206800F08AFB012084F839000020B6
:101A000010BD0000094808B5816D41F004018165F1
:101A1000806D002200F00400009001211E20FFF7DD
:101A2000C3F8BDE808401E20FFF7B3B8001002401D
:101A300010B50268044631B1042908D0082929D01C
:101A40000C2908D12AE0D06840F0020002E0D068FA
:101A500040F00400D0600122206800F0B3FB114880
:101A6000216881420BD01048814208D00F48814242
:101A700005D00F48814202D00E48814203D1486C04
:101A800040F4004048642068016841F001010160B1
:101A9000002010BDD06840F00800DBE7D06840F0BF
:101AA0001000D7E7002C0140003401400040014005
:101AB00000440140004801407047000010B5094C47
:101AC000607800280CD0A078022801D2002000E025
:101AD0000120FEF7FDFCA078401C00F00300A07080
:101AE00010BD0000000000207047FEE730B5B9B01F
:101AF000142122A8FEF76BFB442127A8FEF767FB01
:101B000088216846FEF763FB364CA06D40F080509C
:101B1000A065A06D002500F080503890042031951C
:101B200027900120299027A8FFF7C0FB00B1FEE70E
:101B30004FF400300090401221906846FFF7A0F863
:101B4000E06C40F00100E064E06C00F001003890CF
:101B5000E06C40F00200E064E06C00F002003890BD
:101B6000E06C40F00400E064E06C00F004003890A9
:101B7000E06C40F00800E064E06C22A900F008008E
:101B8000389048F2C07022900220CDE9230503204E
:101B900025900B2026904FF09040FEF7AFFD4FF2BE
:101BA0003320229022A91048FEF7A8FD4FF4FC70C4
:101BB000229022A90D48FEF7A1FD4FF47F4022900C
:101BC00022A90B48FEF79AFD0220FEF727FDA06D23
:101BD00040F40070A065A06D00F40070389039B03A
:101BE00030BD00000010024000040048000800481A
:101BF000000C004870B50446FEF76EFE05464FF433
:101C00007A7608E0FEF768FE401BB04203D9012057
:101C1000A063032070BD20688068C0438006F1D4B3
:101C2000002070BDFEE770470907090E002806DA9C
:101C300000F00F0000F1E02080F8141D704700F163
:101C4000E02080F800147047704700002DE9F04153
:101C5000544C05460F46E0680026820728684FF07E
:101C6000700112D0E26802F0030282421BD1D0B1AF
:101C7000E06891FAA1F100F07000B1FA81F1C8407A
:101C80006968401C88420ED122E0012804D0022855
:101C900005D0032807D108E02268920701E02268F6
:101CA0005205002A07DB012678E02268920302D45D
:101CB00022685203F5E7E26891FAA1F122F073037A
:101CC0006A68B1FA81F1521E8A4013430343E3600C
:101CD000206820F080602060FEF7FEFD804605E071
:101CE000FEF7FAFDA0EB080002284ED8206800019C
:101CF000F6D44FF4FE4017B390FAA0F0A968012F74
:101D0000B0FA80F04FF0FF3201FA00F12AD0686992
:101D100002EB50004FF0C06292FAA2F2B2FA82F2E5
:101D2000904001432069204A10400143216120680E
:101D300040F080602060FEF7CFFD074627E090FA74
:101D4000A0F0A968B0FA80F08140E8684FF4003252
:101D500092FAA2F20009B2FA82F29040014320699D
:101D6000124AE1E7286902EB50004FF4C00292FAF0
:101D7000A2F2B2FA82F29040014320690C4AD3E702
:101D8000FEF7AAFDC01B022801D9032606E0206841
:101D90000001F5D52069A969084320613046BDE8F6
:101DA000F081000000100240FF80FFF9FF80FDFF7E
:101DB000FF809FFF2DE9F0414A4C06468846E068C7
:101DC0000025810730684FF0700312D0E16801F000
:101DD000030181421BD1D0B1E06893FAA3F100F076
:101DE0007000B1FA81F1C8407168401C88420ED180
:101DF00022E0012804D0022805D0032807D108E0FA
:101E00002168890701E021684905002907DB0125D0
:101E100064E02168890302D421684903F5E7E16899
:101E200093FAA3F321F073027168B3FA83F3491EA6
:101E300099400A430243E260206820F0805020600D
:101E4000FEF74AFD074604E0FEF746FDC01B0228E8
:101E50003BD820688000F7D44FF4FE4191FAA1F1FD
:101E6000B068B8F1000FB1FA81F100FA01F019D0B1
:101E700031694FF0FF3202EB51014FF0C06292FA2C
:101E8000A2F2B2FA82F2914008436169164A114007
:101E900008436061206840F080502060FEF71CFD20
:101EA000074614E0F1684FF4003292FAA2F20909F1
:101EB000B2FA82F29140084361690C4AE7E700BF39
:101EC000FEF70AFDC01B022801D9032506E02068A1
:101ED0008000F5D560697169084360612846BDE8F6
:101EE000F081000000100240FF80FFF9FF80FDFF3D
:101EF000F8B51C4D06460024A86DC00002D5FEF7BB
:101F0000B7FE0DE0A86D40F08050A865A86D00F008
:101F100080500090FEF7ACFEA96D21F08051A965BC
:101F2000B0F5007F04D0802E07D94FF003040AE0FB
:101F3000802E08D9A02E01D804E001D1022402E0AD
:101F4000702E00D101240848016821F007012143C7
:101F50000160006800F00700A04201D00120F8BD38
:101F60000020F8BD00100240002002407047FEF73C
:101F7000B9BC000010B598B0142111A8FEF727F9DC
:101F800044216846FEF723F91020009001200690B6
:101F900060200024CDE9074068460A94FFF786F9DF
:101FA00000B1FEE70F20CDE9110413941494002131
:101FB00011A81594FFF73CF800B1FEE7094CA06D9D
:101FC00040F08050A065A06D00F080501690201564
:101FD000FEF71CFE00B1FEE7A06D20F08050A0656A
:101FE00018B010BD001002400D48016841F47001A6
:101FF00001600C48016841F001010160002181602D
:102000000268094B1A4002608214C260026822F41E
:102010008022026081610249C003803908607047F4
:1020200088ED00E000100240FFFFF6EA104810B50E
:10203000006842F21071B0FBF1F0401E81B20D4811
:102040004FF08042C1800C480260416041F287320B
:102050000021C0E903218160FFF77EFB20B906481B
:10206000FFF7ACFB002801D0FEF7D4FA10BD00004A
:102070003000002000000020340000200148FFF75D
:10208000AABB000034000020704700000A4842F25A
:1020900010710B4A0068B0FBF1F0401E81B2074896
:1020A000018108480260416049F640420021C0E9D0
:1020B00003218160704700003000002000000020F4
:1020C00000080040700000200148FFF784BB0000BA
:1020D000700000200B4810B50B49002202604989AE
:1020E000C0E901123C38FFF771FC06490022A1F15A
:1020F0003C00FFF723FC03480021BDE810403C38BA
:10210000FFF796BCAC000020000000202DE9F0474E
:102110000268244B244D254E254F264C4FF0804A13
:10212000984209D0504507D0A84205D0B04203D00C
:10213000B84201D0A04204D122F0700C4A6842EAB1
:102140000C02DFF874C0DFF87480DFF874909842F6
:102150000FD050450DD0A8420BD0B04209D0B842A4
:1021600007D0A04205D0604503D0404501D0484586
:1021700003D122F44075CA682A4302608A68C262A9
:102180000A688262984207D0A04205D0604503D019
:10219000404501D0484501D10969016301214161F0
:1021A000BDE8F087002C014000040040000800401A
:1021B000000C004000340140004001400044014058
:1021C0000048014010B50123046A8B409C4304621F
:1021D000036A8A401343036210BD00002DE9F043F7
:1021E000026A22F001020262056A436882691C4C9D
:1021F00025F0020522400C6822F0030214438A688D
:10220000194E2A43174D194FDFF864C0DFF8649068
:10221000A84207D0B04205D0B84203D0604501D0F3
:10222000484506D122F00808CA6842EA080222F0AE
:102230000402A84207D0B04205D0B84203D060459E
:1022400001D0484505D14D6923F440731D438B6986
:102250002B4343608461496841630262BDE8F083B7
:102260008FFFFEFF002C0140003401400040014080
:102270000044014000480140F0B5026A22F010021B
:102280000262056A42688369194C1B4E23400C6840
:1022900023F4407343EA042425F020038D6843EAC5
:1022A0000513144DA84201D0B04206D1CF6823F0E7
:1022B000800343EA071323F04003A8420AD0B04248
:1022C00008D00E4DA84205D00D4DA84202D00D4DAC
:1022D000A84207D14D6922F4406242EA85028D6925
:1022E00042EA850242608461496881630362F0BD0D
:1022F000FF8FFFFE002C01400034014000400140F0
:102300000044014000480140F0B5026A22F48072A6
:102310000262056A4368C269194C1B4E22400C6870
:1023200022F00302144325F400728D6842EA05226C
:10233000144DA84201D0B04206D1CF6822F4006209
:1023400042EA072222F48062A8420AD0B04208D0B2
:102350000E4DA84205D00E4DA84202D00D4DA84208
:1023600007D14D6923F4405343EA05138D6943EACD
:1023700005134360C4614968C1630262F0BD000097
:102380008FFFFEFF002C014000340140004001405F
:10239000004401400048014030B5026A22F48052F6
:1023A0000262046A4268C369124D24F400542B404F
:1023B0000D6823F4407343EA05238D6844EA05342D
:1023C0000D4DA8420BD00D4DA84208D00C4DA8428F
:1023D00005D00C4DA84202D00B4DA84204D14D6946
:1023E00022F4804242EA85124260C3614968016476
:1023F000046230BDFF8FFFFE002C0140003401401D
:1024000000400140004401400048014030B5026AEC
:1024100022F480320262046A4268436D114D2B40FF
:102420000D681D4324F400330C8943EA04430E4C29
:10243000A0420BD00D4CA04208D00D4CA04205D0BC
:102440000C4CA04202D00C4CA04204D14C6922F4A6
:10245000803242EA04224260456549688165036230
:1024600030BD00008FFFFEFF002C01400034014012
:1024700000400140004401400048014030B5026A7C
:1024800022F480120262046A4268436D114D24F402
:1024900000142B400D6843EA05230D8944EA0554D6
:1024A0000D4DA8420BD00D4DA84208D00C4DA842AE
:1024B00005D00C4DA84202D00B4DA84204D14D6965
:1024C00022F4802242EA8522426043654968C16560
:1024D000046230BDFF8FFFFE002C0140003401403C
:1024E000004001400044014000480140FEE7000078
:1024F0002DE9F0411D46FDF7F9FFFE4C062D7DD27A
:10250000DFE805F0034FA3F6F4F32078FA4DC10796
:10251000C90E00F0020241EA825100F0040241EAD1
:10252000025300F008000343F2482A4600213C38D9
:10253000FEF7EAFA2079C107C90E00F0020241EA6B
:10254000825100F0040241EA025300F00800034304
:10255000E8482A4602213C38FEF7D6FA207AC1071D
:10256000C90E00F0020241EA825100F0040241EA81
:10257000025300F008000343DE482A4604213C3899
:10258000FEF7C2FA207BC107C90E00F0020241EA41
:10259000825100F0040241EA025300F008000343B4
:1025A00050E02078D54DC107490E00F0020241EA03
:1025B000023100F0040241EA822100F0080041EA01
:1025C0008003CC482A4600213C38FEF79DFA20794A
:1025D000C107490E00F0020241EA023100F0040294
:1025E00041EA822100F0080041EA8003C1482A46FE
:1025F00002213C38FEF788FA207A00E0A3E1C10707
:10260000490E00F0020241EA023100F0040241EA00
:10261000822100F0080041EA8003B6482A460421DE
:102620003C38FEF771FA207BC107490E00F0020228
:1026300041EA023100F0040241EA822100F0080080
:1026400041EA80032A4606211DE12078AC4DC107EE
:10265000090C00F0020241EA027100F0040241EAB2
:10266000826100F0080041EAC023A2482A46002106
:102670003C38FEF749FA2079C107090C00F0020244
:1026800041EA027100F0040241EA826100F00800B0
:1026900041EAC02397482A4602213C38FEF734FA23
:1026A000207AC107090C00F0020241EA027100F031
:1026B000040241EA826100F0080041EAC0238D482B
:1026C0002A4604213C38FEF71FFA207BC107090C7B
:1026D00000F0020241EA027100F0040241EA826164
:1026E00000F0080041EAC023ACE7D2E05FE0FFE77A
:1026F00020786FF04045C10700F0080041EAC06350
:102700007C482A4600213C38FEF7FEF92078AE00CE
:1027100000F00203C0F380000343764832460121F3
:102720003C38FEF7F1F920792A46C10700F008008D
:1027300041EAC0636F4802213C38FEF7E5F9207991
:10274000324600F00203C0F38000034369480321CE
:102750003C38FEF7D9F9207A2A46C10700F0080074
:1027600041EAC063634804213C38FEF7CDF9207A82
:10277000324600F00203C0F3800003435D480521A8
:102780003C38FEF7C1F9207B2A46C10700F008005B
:1027900041EAC063574806213C38FEF7B5F9207B73
:1027A000324600F00203C0F3800003436AE0207861
:1027B0006FF0407600F00201090600F0040041EAE3
:1027C00080534C48324600213C38FEF79DF9206882
:1027D000042505EA500100F0010041EAC003454824
:1027E000B7153A4601213C38FEF78EF9207932467A
:1027F00000F00201090600F0040041EA80533D4860
:1028000002213C38FEF780F960683A4605EA50013B
:1028100000F0010041EAC003364803213C38FEF7CE
:1028200073F9207A324600F00201090600F0040034
:1028300041EA80532F4804213C38FEF765F9A0682F
:102840003A4605EA500100F0010041EAC003294878
:1028500005213C38FEF758F9207B324600F0020192
:10286000090600F0040041EA8053224806213C3862
:10287000FEF74AF9E0683A4605EA500100F0010027
:1028800041EAC0030721BDE8F0411A483C38FEF791
:102890003BB920781B4DC107890B00F0020241EAC9
:1028A000C21100F0040241EAC21100F0080041EA3E
:1028B000C05310482A4600213C38FEF725F92079FC
:1028C000C107890B00F0020241EAC21100F00402C4
:1028D00041EAC21100F0080041EAC05305482A4607
:1028E00002213C38FEF710F9207AC107890B00F06D
:1028F000020209E004010020E7FF3FFF9FCFFFFF36
:10290000FF3FFFCFFFFCFDFB41EAC21100F00402D4
:1029100041EAC21100F0080041EAC0532A460421EE
:102920000A48FEF7F1F8207BC107890B00F002028C
:1029300041EAC21100F0040241EAC21100F00800AD
:1029400041EAC0537EE6BDE8F0810000C8000020E7
:1029500002E008C8121F08C1002AFAD17047704768
:10296000002001E001C1121F002AFBD170470000C6
:10297000114C0120E070002020716071FDF7BAFF5A
:10298000FFF7F8FA0020FDF74FFD0120FDF74CFDA1
:10299000FDF7B4FC0120FDF737FCFFF747FBFFF71D
:1029A00075FB44F620606081FFF794FBC82202218A
:1029B00002A0FDF7C9FCFEE70000002020206D7496
:1029C00033746134206C6162312073746172746598
:1029D000720000000400000106070817090001004A
:1029E000020004002000080000FE1467001D1447C8
:1029F000009D009C003F00FA14000053419800190C
:102A0000485A095A005F00FC015F01FC00AF140442
:102A1000005BC018815AC9005800C005005F004221
:102A200000F5006700EA00AF00BF004600FF00EFBE
:102A3000000000000000000001020304060708096E
:102A4000A0860100400D0300801A060000350C002E
:102A500040420F0080841E0000093D0000127A00F1
:102A60000024F40000366E010048E801006CDC022E
:102A7000902A0008000000203400000050290008BF
:102A8000C42A000834000020E40400006029000883
:102A900000000000000000000000000000040048EA
:102AA00000100048000000480000004800000048F6
:102AB0000000004800000048000400000000000082
:042AC00000093D00CC
:040000050800018965
:00000001FF
